:100000000C9434000C9451000C9451000C94510049
:100010000C9451000C9451000C9451000C9451001C
:100020000C9451000C9451000C9451000C9451000C
:100030000C9451000C946C000C9451000C945100E1
:100040000C9451000C9451000C9417010C94450130
:100050000C9451000C9451000C9451000C945100DC
:100060000C9451000C94510011241FBECFEFD8E026
:10007000DEBFCDBF11E0A0E0B1E0E6ECF3E002C0EE
:1000800005900D92AC33B107D9F721E0ACE3B1E0B4
:1000900001C01D92A138B207E1F70E9453000C94F1
:1000A000E1010C9400000E94E70087E690E00E94C6
:1000B0006F01E1E8F0E080818A7F80838081826047
:1000C0008083EFE6F0E0808181608083789482E035
:1000D00091E00E949F01FFCF1F920F920FB60F92E7
:1000E00011241F932F933F934F935F936F937F93AD
:1000F0008F939F93AF93BF93EF93FF93CF93DF9330
:1001000000D01F92CDB7DEB780E390E39A83898356
:100110001B82809101018230A9F0833029F1813066
:10012000E1F58091000191E0980F909300018750D4
:10013000803720F482E08093010132C087E0809311
:1001400000012EC080910001880F0E94F600182F38
:100150000E941301111104C083E08093010120C0AB
:1001600081E0809301011CC08091000140E1BE014B
:100170006F5F7F4F90E00E94AC0180E291E00E94AF
:100180009F01CE0101960E949F0187E391E00E94AA
:100190009F0181E08093010103C081E08093010110
:1001A0000F900F900F90DF91CF91FF91EF91BF9142
:1001B000AF919F918F917F916F915F914F913F91FF
:1001C0002F911F910F900FBE0F901F90189587B120
:1001D0008F7C87B988B1806388B9E9EBF0E08081D2
:1001E0008C7F808388E98093B800089594EA909387
:1001F000BC009091BC009923E4F78093BB0084E895
:100200008093BC008091BC008823E4F78091B90002
:10021000887F883121F0803421F480E0089580E0E7
:10022000089581E0089584E98093BC0008951F92A9
:100230000F920FB60F9211242F938F939F93EF93EA
:10024000FF938091C0002091C6008C71E0913E0127
:10025000EF5FEF7190913D01E91739F0E0933E01B6
:10026000F0E0EF5BFE4F208301C082E090913C0103
:10027000892B80933C01FF91EF919F918F912F915A
:100280000F900FBE0F901F9018951F920F920FB6F0
:100290000F9211248F939F93EF93FF9390914001BE
:1002A00080913F01981769F0E0913F01EF5FEF7196
:1002B000E0933F01F0E0EF59FE4F80818093C6004C
:1002C00005C0E1ECF0E080818F7D8083FF91EF91AC
:1002D0009F918F910F900FBE0F901F9018951092C5
:1002E000400110923F0110923E0110923D01282FD3
:1002F000392F33231CF422E02093C0009078909390
:10030000C5008093C40088E98093C10086E0809393
:10031000C2000895209140012F5F2F7190913F01FD
:100320002917E1F3E22FF0E0EF59FE4F808320938D
:100330004001E1ECF0E08081806280830895CF93FA
:10034000DF93EC0103C021960E948A01888181110C
:10035000FACFDF91CF910895BB274A3031F499232A
:1003600022F4BDE2909581959F4F0C94B801BB2774
:10037000FB015527AA27880F991FAA1FA41710F061
:10038000A41B83955051B9F7A05DAA3308F0A95D6D
:10039000A193009779F7B111B1931192CB010C940D
:1003A000D101DC01FC01672F71917723E1F73297CE
:1003B00004C07C916D9370836291AE17BF07C8F340
:0603C0000895F894FFCF40
:1003C60007010D0A5363616E204932432D6275732E
:1003D60020666F7220646576696365733A0D0A005C
:1003E600416374697665206164647265737320661F
:0C03F6006F756E643A20002F6E2F7200AD
:00000001FF
