S00F00006932635F6275732E737265636E
S11300000C9434000C9451000C9451000C94510045
S11300100C9451000C9451000C9451000C94510018
S11300200C9451000C9451000C9451000C94510008
S11300300C9451000C946C000C9451000C945100DD
S11300400C9451000C9451000C944B010C947901C4
S11300500C9451000C9451000C9451000C945100D8
S11300600C9451000C94510011241FBECFEFD8E022
S1130070DEBFCDBF11E0A0E0B1E0EEE2F4E002C0EB
S113008005900D92AC33B107D9F721E0ACE3B1E0B0
S113009001C01D92A138B207E1F70E9453000C94ED
S11300A015020C9400000E94040187E690E00E946F
S11300B0A301E1E8F0E080818A7F8083808182600F
S11300C08083EFE6F0E0808181608083789481E032
S11300D091E00E94D101FFCF1F920F920FB60F92B1
S11300E011242F933F934F935F936F937F938F9339
S11300F09F93AF93BF93EF93FF93CF93DF9300D07E
S1130100CDB7DEB780E390E39A83898380910001C1
S1130110823041F08330C1F1813009F05DC082E06A
S11301208093000181E70E94130181112AC081E2BA
S113013091E00E94D1010E9431014AE0BE016F5F4B
S11301407F4F90E00E94E001CE0101960E94D10110
S11301508CE291E00E94D1010E9431014AE0BE018B
S11301606F5F7F4F90E00E94E001CE0101960E94F4
S1130170D1018EE191E00E94D10183E080930001DE
S113018003C081E0809300018EE291E00E94D101DE
S11301900E9431014AE0BE016F5F7F4F90E00E94F0
S11301A0E001CE0101960E94D1018CE291E00E940F
S11301B0D1010E943C014AE0BE016F5F7F4F90E095
S11301C00E94E001CE0101960E94D1018EE191E0EE
S11301D00E94D1010E94470181E0809300010F90A9
S11301E00F90DF91CF91FF91EF91BF91AF919F91CC
S11301F08F917F916F915F914F913F912F910F90CC
S11302000FBE0F901F90189587B18F7C87B988B166
S1130210806388B9E9EBF0E080818C7F808388E992
S11302208093B800089594EA9093BC00ECEBF0E05E
S113023090819923ECF78093BB0084E88093BC0001
S1130240ECEBF0E080818823ECF79091B900987F83
S1130250983129F081E0903419F480E0089580E029
S1130260089584EC8093BC00ECEBF0E0808188235B
S1130270ECF78091BB00089584E88093BC00ECEB1C
S1130280F0E080818823ECF78091BB00089584E935
S11302908093BC0008951F920F920FB60F92112401
S11302A02F938F939F93EF93FF938091C00020919E
S11302B0C6008C71E0913E01EF5FEF7190913D01BA
S11302C0E91739F0E0933E01F0E0EF5BFE4F208345
S11302D001C082E090913C01892B80933C01FF9105
S11302E0EF919F918F912F910F900FBE0F901F90C0
S11302F018951F920F920FB60F9211248F939F930C
S1130300EF93FF939091400180913F01981769F01A
S1130310E0913F01EF5FEF71E0933F01F0E0EF59AF
S1130320FE4F80818093C60005C0E1ECF0E080813F
S11303308F7D8083FF91EF919F918F910F900FBEDE
S11303400F901F9018951092400110923F01109247
S11303503E0110923D0199231CF422E02093C00039
S113036090789093C5008093C40088E98093C1007D
S113037086E08093C2000895209140012F5F2F7181
S113038090913F012917E1F3E22FF0E0EF59FE4F7E
S1130390808320934001E1ECF0E0808180628083DF
S11303A00895CF93DF93EC018881882331F021965F
S11303B00E94BC0189918111FBCFDF91CF910895F7
S11303C0BB274A3031F4992322F4BDE290958195FC
S11303D09F4F0C94EC01BB27FB015527AA27880FDC
S11303E0991FAA1FA41710F0A41B83955051B9F7A5
S11303F0A05DAA3308F0A95DA193009779F7B11124
S1130400B1931192CB010C940502DC01FC01672F1E
S113041071917723E1F7329704C07C916D937083D7
S11104206291AE17BF07C8F30895F894FFCF9A
S113042E014765742048756D696469747920616E3D
S113043E642054656D70657261747572653A0D0A47
S113044E0048756D69646974793A20002C0054650E
S10F045E6D70657261747572653A20005F
S9030000FC
