:100000000C9434000C9451000C9451000C94510049
:100010000C9451000C9451000C9451000C9451001C
:100020000C9451000C9451000C9451000C9451000C
:100030000C9451000C946C000C9451000C945100E1
:100040000C9451000C9451000C9482010C94B0015A
:100050000C9451000C9451000C9451000C945100DC
:100060000C9451000C94510011241FBECFEFD8E026
:10007000DEBFCDBF11E0A0E0B1E0ECE9F4E002C0EA
:1000800005900D92A035B107D9F721E0A0E5B1E0C8
:1000900001C01D92A539B207E1F70E9453000C94EC
:1000A0004C020C9400000E94340187E690E00E940C
:1000B000DA01E1E8F0E080818B7F808380818360DA
:1000C0008083EFE6F0E0808181608083789481E036
:1000D00091E00E940802FFCF1F920F920FB60F927D
:1000E00011242F933F934F935F936F937F938F933D
:1000F0009F93AF93BF93EF93FF93CF93DF9300D082
:100100001F92CDB7DEB780E390E39A8389831B8289
:1001100080910001823051F0833009F449C0813070
:1001200009F089C082E08093000188C088EB0E94BA
:100130004301811102C00E94610189EB0E944301C9
:1001400081112AC082E291E00E9408020E946C01A3
:100150004AE0BE016F5F7F4F90E00E941702CE0120
:1001600001960E9408028DE291E00E9408020E941E
:100170006C014AE0BE016F5F7F4F90E00E94170262
:10018000CE0101960E9408028FE191E00E940802D0
:1001900083E08093000152C08FE291E00E94080248
:1001A0008FE191E00E94080281E08093000146C047
:1001B00088EB0E944301811103C082E00E9461012B
:1001C00089EB0E94430181112AC081E491E00E94E1
:1001D00008020E946C014AE0BE016F5F7F4F90E011
:1001E0000E941702CE0101960E9408028DE291E062
:1001F0000E9408020E9477014AE0BE016F5F7F4FB4
:1002000090E00E941702CE0101960E9408028FE141
:1002100091E00E94080281E0809300010FC08FE20C
:1002200091E00E9408028FE191E00E94080281E0C3
:100230008093000103C081E0809300010F900F9034
:100240000F90DF91CF91FF91EF91BF91AF919F916F
:100250008F917F916F915F914F913F912F910F906F
:100260000FBE0F901F90189587B18F7C87B988B10A
:10027000806388B9E9EBF0E080818C7F808388E936
:100280008093B800089594EA9093BC00ECEBF0E002
:1002900090819923ECF78093BB0084E88093BC00A5
:1002A000ECEBF0E080818823ECF79091B900987F27
:1002B000983129F081E0903419F480E0089580E0CD
:1002C00008958093BB0084E88093BC00ECEBF0E0E1
:1002D00080818823ECF7089584EC8093BC00ECEBDC
:1002E000F0E080818823ECF78091BB00089584E8DA
:1002F0008093BC00ECEBF0E080818823ECF78091E8
:10030000BB0008951F920F920FB60F9211242F93E6
:100310008F939F93EF93FF938091C0002091C6002D
:100320008C71E0915201EF5FEF7190915101E917EB
:1003300039F0E0935201F0E0EB5AFE4F208301C008
:1003400082E090915001892B80935001FF91EF91B1
:100350009F918F912F910F900FBE0F901F90189526
:100360001F920F920FB60F9211248F939F93EF93CA
:10037000FF939091540180915301981769F0E09197
:100380005301EF5FEF71E0935301F0E0EB58FE4F44
:1003900080818093C60005C0E1ECF0E080818F7D14
:1003A0008083FF91EF919F918F910F900FBE0F90DF
:1003B0001F901895109254011092530110925201FF
:1003C0001092510199231CF422E02093C0009078F0
:1003D0009093C5008093C40088E98093C10086E0B3
:1003E0008093C2000895209154012F5F2F71909146
:1003F00053012917E1F3E22FF0E0EB58FE4F808321
:1004000020935401E1ECF0E08081806280830895C4
:10041000CF93DF93EC018881882331F021960E94ED
:10042000F30189918111FBCFDF91CF910895BB2713
:100430004A3031F4992322F4BDE2909581959F4F83
:100440000C942302BB27FB015527AA27880F991F6D
:10045000AA1FA41710F0A41B83955051B9F7A05DF3
:10046000AA3308F0A95DA193009779F7B111B19370
:100470001192CB010C943C02DC01FC01672F7191BD
:100480007723E1F7329704C07C916D93708362917A
:0C049000AE17BF07C8F30895F894FFCF23
:10049C00014765742054656D706572617475726581
:1004AC0020616E642048756D69646974793A200D19
:1004BC000A0048756D69646974793A20002C00440F
:1004CC006576696365206E6F7420666F756E642E39
:1004DC000054656D70657261747572653A20000028
:00000001FF
