S00C00004C4544532E73726563F0
S11300000C9434000C9446000C9446000C94460066
S11300100C9446000C9446000C9446000C94460044
S11300200C9446000C9446000C9446000C94460034
S11300300C9446000C9446000C9446000C94460024
S11300400C9446000C9446000C9446000C94460014
S11300500C9446000C9446000C9446000C94460004
S11300600C9446000C94460011241FBECFEFD8E038
S1130070DEBFCDBF21E0A0E0B1E001C01D92A13000
S1130080B207E1F70E9448000C94E3000C940000CE
S1130090259A249A239A229A219A2D982C982B985F
S11300A02A98299855985D9A61E050E220E198E0F9
S11300B084E042E0309100014D99FECF3111FCCF34
S11300C04D9BFECF609300014D9B7AC035B135271F
S11300D035B93FEF79E6E8E131507040E040E1F7AF
S11300E000C0000035B1352735B935B1322735B9EF
S11300F03FEF79E6E8E131507040E040E1F700C0BD
S1130100000035B1322735B935B1392735B93FEF5C
S113011079E6E8E131507040E040E1F700C00000CA
S113012035B1392735B935B1382735B93FEF79E6D7
S1130130E8E131507040E040E1F700C0000035B123
S1130140382735B935B1342735B93FEF79E6E8E1D9
S113015031507040E040E1F700C0000035B1342771
S113016035B935B1382735B93FEF79E6E8E1315093
S11301707040E040E1F700C0000035B1382735B9E0
S113018035B1392735B93FEF79E6E8E131507040B0
S1130190E040E1F700C0000035B1392735B935B189
S11301A0322735B93FEF79E6E8E131507040E0405D
S11301B0E1F700C0000035B1322735B94D9986CF3B
S10D01C01092000177CFF894FFCFEE
S9030000FC
