:100000000C9434000C9446000C9446000C9446006A
:100010000C9446000C9446000C9446000C94460048
:100020000C9446000C9446000C9446000C94460038
:100030000C9446000C94A6000C9446000C944600C8
:100040000C9446000C9446000C9446000C94460018
:100050000C9446000C9446000C9446000C94460008
:100060000C9446000C94460011241FBECFEFD8E03C
:10007000DEBFCDBF21E0A0E0B1E001C01D92A23003
:10008000B207E1F70E9488000C94F6000C9400007F
:10009000FC01408121E030E002C0220F331F6A954D
:1000A000E2F7242B20830895FC01808121E030E0D9
:1000B00002C0220F331F6A95E2F7922F9095892391
:1000C00080838181282B21830895FC01908121E088
:1000D00030E002C0220F331F6A95E2F720952923F2
:1000E00020830895FC01408121E030E002C0220F0E
:1000F000331F6A95E2F7242720830895FC0180814D
:1001000090E002C0959587956A95E2F78170089511
:1001100061E087E290E00E94480061E088E290E0C0
:100120000E94650061E08AE290E00E945400E1E8EC
:10013000F0E080818B7F8083808183608083EFE625
:10014000F0E08081816080837894FFCF1F920F92CE
:100150000FB60F9211242F933F934F935F936F939A
:100160007F938F939F93AF93BF93EF93FF9361E040
:1001700089E290E00E947E00811117C08091000109
:10018000909101018330910551F410920101109278
:10019000000161E088E290E00E94720016C00196C2
:1001A000909301018093000110C080910001909113
:1001B0000101892B29F0109201011092000105C064
:1001C00061E088E290E00E947200FF91EF91BF91A0
:1001D000AF919F918F917F916F915F914F913F91DF
:1001E0002F910F900FBE0F901F901895F894FFCF8E
:00000001FF
