:100000000C9434000C9451000C9451000C94510049
:100010000C9451000C9451000C9451000C9451001C
:100020000C9451000C9451000C9451000C9451000C
:100030000C9451000C94AF000C9451000C9451009E
:100040000C9451000C9451000C9451000C945100EC
:100050000C9451000C9451000C9451000C945100DC
:100060000C9451000C94510011241FBECFEFD8E026
:10007000DEBFCDBF11E0A0E0B1E0ECEDF2E002C0E8
:1000800005900D92A230B107D9F721E0A2E0B1E0CE
:1000900001C01D92A430B207E1F70E9478000C94D1
:1000A0006C010C940000FC01408121E030E002C0B2
:1000B000220F331F6A95E2F7242B20830895FC0159
:1000C000908121E030E002C0220F331F6A95E2F7F1
:1000D0002095292320830895FC01408121E030E010
:1000E00002C0220F331F6A95E2F7242B2083089564
:1000F00065E084E290E00E94530065E085E290E0D4
:100100000E945F0064E084E290E00E94530064E09B
:1001100085E290E00E945F0063E084E290E00E944C
:10012000530063E085E290E00E945F0062E084E2B9
:1001300090E00E94530062E085E290E00E945F0040
:10014000E1E8F0E080818B7F808380818360808321
:10015000EFE6F0E08081816080837894FFCF1F928A
:100160000F920FB60F9211242F933F934F935F93EB
:100170006F937F938F939F93AF93BF93EF93FF936F
:10018000809102019091030183309105D0F08FEFAF
:100190009FEF909301018093000162E084E290E080
:1001A0000E946C0063E084E290E00E945F00809116
:1001B0000201909103010197909303018093020142
:1001C0007AC08230910571F5809100019091010112
:1001D0000197A1F463E084E290E00E946C0064E087
:1001E00084E290E00E945F008091020190910301FF
:1001F000019690930301809302015DC063E084E265
:1002000090E00E946C0062E084E290E00E945F0057
:1002100080910201909103010197909303018093D3
:10022000020149C0019771F580910001909101018F
:100230000197A1F464E084E290E00E946C0065E024
:1002400084E290E00E945F0080910201909103019E
:10025000019690930301809302012DC064E084E233
:1002600090E00E946C0063E084E290E00E945F00F6
:100270008091020190910301019790930301809373
:10028000020119C081E090E0909301018093000188
:1002900065E084E290E00E946C0064E084E290E01B
:1002A0000E945F008091020190910301019690935A
:1002B000030180930201FF91EF91BF91AF919F9154
:1002C0008F917F916F915F914F913F912F910F90FF
:0C02D0000FBE0F901F901895F894FFCF00
:0202DC0001001F
:00000001FF
